{
  "_format": "hh-sol-artifact-1",
  "contractName": "TaxedToken",
  "sourceName": "contracts/TaxedToken.sol",
  "abi": [
    {
      "inputs": [
        {
          "internalType": "uint256",
          "name": "transferFeePercentage_",
          "type": "uint256"
        },
        {
          "internalType": "uint256",
          "name": "burnPercentage_",
          "type": "uint256"
        },
        {
          "internalType": "address",
          "name": "fundAddress_",
          "type": "address"
        }
      ],
      "stateMutability": "nonpayable",
      "type": "constructor"
    },
    {
      "anonymous": false,
      "inputs": [
        {
          "indexed": true,
          "internalType": "address",
          "name": "owner",
          "type": "address"
        },
        {
          "indexed": true,
          "internalType": "address",
          "name": "spender",
          "type": "address"
        },
        {
          "indexed": false,
          "internalType": "uint256",
          "name": "value",
          "type": "uint256"
        }
      ],
      "name": "Approval",
      "type": "event"
    },
    {
      "anonymous": false,
      "inputs": [
        {
          "indexed": true,
          "internalType": "address",
          "name": "user",
          "type": "address"
        },
        {
          "indexed": false,
          "internalType": "bool",
          "name": "value",
          "type": "bool"
        }
      ],
      "name": "BlacklistUpdated",
      "type": "event"
    },
    {
      "anonymous": false,
      "inputs": [
        {
          "indexed": true,
          "internalType": "address",
          "name": "previousOwner",
          "type": "address"
        },
        {
          "indexed": true,
          "internalType": "address",
          "name": "newOwner",
          "type": "address"
        }
      ],
      "name": "OwnershipTransferred",
      "type": "event"
    },
    {
      "anonymous": false,
      "inputs": [
        {
          "indexed": true,
          "internalType": "address",
          "name": "from",
          "type": "address"
        },
        {
          "indexed": true,
          "internalType": "address",
          "name": "to",
          "type": "address"
        },
        {
          "indexed": false,
          "internalType": "uint256",
          "name": "value",
          "type": "uint256"
        }
      ],
      "name": "Transfer",
      "type": "event"
    },
    {
      "inputs": [
        {
          "internalType": "address",
          "name": "owner",
          "type": "address"
        },
        {
          "internalType": "address",
          "name": "spender",
          "type": "address"
        }
      ],
      "name": "allowance",
      "outputs": [
        {
          "internalType": "uint256",
          "name": "",
          "type": "uint256"
        }
      ],
      "stateMutability": "view",
      "type": "function"
    },
    {
      "inputs": [
        {
          "internalType": "address",
          "name": "spender",
          "type": "address"
        },
        {
          "internalType": "uint256",
          "name": "amount",
          "type": "uint256"
        }
      ],
      "name": "approve",
      "outputs": [
        {
          "internalType": "bool",
          "name": "",
          "type": "bool"
        }
      ],
      "stateMutability": "nonpayable",
      "type": "function"
    },
    {
      "inputs": [
        {
          "internalType": "address",
          "name": "account",
          "type": "address"
        }
      ],
      "name": "balanceOf",
      "outputs": [
        {
          "internalType": "uint256",
          "name": "",
          "type": "uint256"
        }
      ],
      "stateMutability": "view",
      "type": "function"
    },
    {
      "inputs": [
        {
          "internalType": "address",
          "name": "user",
          "type": "address"
        },
        {
          "internalType": "bool",
          "name": "value",
          "type": "bool"
        }
      ],
      "name": "blacklistUpdate",
      "outputs": [],
      "stateMutability": "nonpayable",
      "type": "function"
    },
    {
      "inputs": [],
      "name": "burnPercentage",
      "outputs": [
        {
          "internalType": "uint256",
          "name": "",
          "type": "uint256"
        }
      ],
      "stateMutability": "view",
      "type": "function"
    },
    {
      "inputs": [],
      "name": "decimals",
      "outputs": [
        {
          "internalType": "uint8",
          "name": "",
          "type": "uint8"
        }
      ],
      "stateMutability": "view",
      "type": "function"
    },
    {
      "inputs": [
        {
          "internalType": "address",
          "name": "spender",
          "type": "address"
        },
        {
          "internalType": "uint256",
          "name": "subtractedValue",
          "type": "uint256"
        }
      ],
      "name": "decreaseAllowance",
      "outputs": [
        {
          "internalType": "bool",
          "name": "",
          "type": "bool"
        }
      ],
      "stateMutability": "nonpayable",
      "type": "function"
    },
    {
      "inputs": [],
      "name": "fundAddress",
      "outputs": [
        {
          "internalType": "address",
          "name": "",
          "type": "address"
        }
      ],
      "stateMutability": "view",
      "type": "function"
    },
    {
      "inputs": [
        {
          "internalType": "address",
          "name": "spender",
          "type": "address"
        },
        {
          "internalType": "uint256",
          "name": "addedValue",
          "type": "uint256"
        }
      ],
      "name": "increaseAllowance",
      "outputs": [
        {
          "internalType": "bool",
          "name": "",
          "type": "bool"
        }
      ],
      "stateMutability": "nonpayable",
      "type": "function"
    },
    {
      "inputs": [
        {
          "internalType": "address",
          "name": "user",
          "type": "address"
        }
      ],
      "name": "isBlackListed",
      "outputs": [
        {
          "internalType": "bool",
          "name": "",
          "type": "bool"
        }
      ],
      "stateMutability": "view",
      "type": "function"
    },
    {
      "inputs": [],
      "name": "name",
      "outputs": [
        {
          "internalType": "string",
          "name": "",
          "type": "string"
        }
      ],
      "stateMutability": "view",
      "type": "function"
    },
    {
      "inputs": [],
      "name": "owner",
      "outputs": [
        {
          "internalType": "address",
          "name": "",
          "type": "address"
        }
      ],
      "stateMutability": "view",
      "type": "function"
    },
    {
      "inputs": [],
      "name": "renounceOwnership",
      "outputs": [],
      "stateMutability": "nonpayable",
      "type": "function"
    },
    {
      "inputs": [],
      "name": "symbol",
      "outputs": [
        {
          "internalType": "string",
          "name": "",
          "type": "string"
        }
      ],
      "stateMutability": "view",
      "type": "function"
    },
    {
      "inputs": [],
      "name": "totalSupply",
      "outputs": [
        {
          "internalType": "uint256",
          "name": "",
          "type": "uint256"
        }
      ],
      "stateMutability": "view",
      "type": "function"
    },
    {
      "inputs": [
        {
          "internalType": "address",
          "name": "recipient",
          "type": "address"
        },
        {
          "internalType": "uint256",
          "name": "amount",
          "type": "uint256"
        }
      ],
      "name": "transfer",
      "outputs": [
        {
          "internalType": "bool",
          "name": "",
          "type": "bool"
        }
      ],
      "stateMutability": "nonpayable",
      "type": "function"
    },
    {
      "inputs": [],
      "name": "transferFeePercentage",
      "outputs": [
        {
          "internalType": "uint256",
          "name": "",
          "type": "uint256"
        }
      ],
      "stateMutability": "view",
      "type": "function"
    },
    {
      "inputs": [
        {
          "internalType": "address",
          "name": "from",
          "type": "address"
        },
        {
          "internalType": "address",
          "name": "to",
          "type": "address"
        },
        {
          "internalType": "uint256",
          "name": "amount",
          "type": "uint256"
        }
      ],
      "name": "transferFrom",
      "outputs": [
        {
          "internalType": "bool",
          "name": "",
          "type": "bool"
        }
      ],
      "stateMutability": "nonpayable",
      "type": "function"
    },
    {
      "inputs": [
        {
          "internalType": "address",
          "name": "newOwner",
          "type": "address"
        }
      ],
      "name": "transferOwnership",
      "outputs": [],
      "stateMutability": "nonpayable",
      "type": "function"
    }
  ],
  "bytecode": "0x60806040523480156200001157600080fd5b506040516200273a3803806200273a833981810160405281019062000037919062000564565b6040518060400160405280600b81526020017f546178656420546f6b656e0000000000000000000000000000000000000000008152506040518060400160405280600381526020017f54544300000000000000000000000000000000000000000000000000000000008152508160039080519060200190620000bb92919062000486565b508060049080519060200190620000d492919062000486565b505050620000f7620000eb6200016e60201b60201c565b6200017660201b60201c565b826007819055508160088190555080600960006101000a81548173ffffffffffffffffffffffffffffffffffffffff021916908373ffffffffffffffffffffffffffffffffffffffff16021790555062000165336c01431e0fae6d7217caa00000006200023c60201b60201c565b5050506200084a565b600033905090565b6000600560009054906101000a900473ffffffffffffffffffffffffffffffffffffffff16905081600560006101000a81548173ffffffffffffffffffffffffffffffffffffffff021916908373ffffffffffffffffffffffffffffffffffffffff1602179055508173ffffffffffffffffffffffffffffffffffffffff168173ffffffffffffffffffffffffffffffffffffffff167f8be0079c531659141344cd1fd0a4f28419497f9722a3daafe3b4186f6b6457e060405160405180910390a35050565b600073ffffffffffffffffffffffffffffffffffffffff168273ffffffffffffffffffffffffffffffffffffffff161415620002af576040517f08c379a0000000000000000000000000000000000000000000000000000000008152600401620002a69062000697565b60405180910390fd5b620002c360008383620003b560201b60201c565b8060026000828254620002d79190620006e7565b92505081905550806000808473ffffffffffffffffffffffffffffffffffffffff1673ffffffffffffffffffffffffffffffffffffffff16815260200190815260200160002060008282546200032e9190620006e7565b925050819055508173ffffffffffffffffffffffffffffffffffffffff16600073ffffffffffffffffffffffffffffffffffffffff167fddf252ad1be2c89b69c2b068fc378daa952ba7f163c4a11628f55a4df523b3ef83604051620003959190620006b9565b60405180910390a3620003b1600083836200042660201b60201c565b5050565b620003c6826200042b60201b60201c565b1562000409576040517f08c379a0000000000000000000000000000000000000000000000000000000008152600401620004009062000675565b60405180910390fd5b620004218383836200048160201b62000b921760201c565b505050565b505050565b6000600660008373ffffffffffffffffffffffffffffffffffffffff1673ffffffffffffffffffffffffffffffffffffffff16815260200190815260200160002060009054906101000a900460ff169050919050565b505050565b828054620004949062000782565b90600052602060002090601f016020900481019282620004b8576000855562000504565b82601f10620004d357805160ff191683800117855562000504565b8280016001018555821562000504579182015b8281111562000503578251825591602001919060010190620004e6565b5b50905062000513919062000517565b5090565b5b808211156200053257600081600090555060010162000518565b5090565b600081519050620005478162000816565b92915050565b6000815190506200055e8162000830565b92915050565b6000806000606084860312156200057a57600080fd5b60006200058a868287016200054d565b93505060206200059d868287016200054d565b9250506040620005b08682870162000536565b9150509250925092565b6000620005c9603083620006d6565b91507f546f6b656e207472616e7366657220726566757365642e20526563656976657260008301527f206973206f6e20626c61636b6c697374000000000000000000000000000000006020830152604082019050919050565b600062000631601f83620006d6565b91507f45524332303a206d696e7420746f20746865207a65726f2061646472657373006000830152602082019050919050565b6200066f8162000778565b82525050565b600060208201905081810360008301526200069081620005ba565b9050919050565b60006020820190508181036000830152620006b28162000622565b9050919050565b6000602082019050620006d0600083018462000664565b92915050565b600082825260208201905092915050565b6000620006f48262000778565b9150620007018362000778565b9250827fffffffffffffffffffffffffffffffffffffffffffffffffffffffffffffffff03821115620007395762000738620007b8565b5b828201905092915050565b6000620007518262000758565b9050919050565b600073ffffffffffffffffffffffffffffffffffffffff82169050919050565b6000819050919050565b600060028204905060018216806200079b57607f821691505b60208210811415620007b257620007b1620007e7565b5b50919050565b7f4e487b7100000000000000000000000000000000000000000000000000000000600052601160045260246000fd5b7f4e487b7100000000000000000000000000000000000000000000000000000000600052602260045260246000fd5b620008218162000744565b81146200082d57600080fd5b50565b6200083b8162000778565b81146200084757600080fd5b50565b611ee0806200085a6000396000f3fe608060405234801561001057600080fd5b50600436106101215760003560e01c806395d89b41116100ad578063dd62ed3e11610071578063dd62ed3e14610320578063e47d606014610350578063e82bef2914610380578063f01f20df1461039e578063f2fde38b146103bc57610121565b806395d89b41146102685780639d11aaaa14610286578063a457c2d7146102a4578063a9059cbb146102d4578063b351dfe81461030457610121565b8063313ce567116100f4578063313ce567146101c257806339509351146101e057806370a0823114610210578063715018a6146102405780638da5cb5b1461024a57610121565b806306fdde0314610126578063095ea7b31461014457806318160ddd1461017457806323b872dd14610192575b600080fd5b61012e6103d8565b60405161013b9190611a04565b60405180910390f35b61015e600480360381019061015991906114a1565b61046a565b60405161016b91906119e9565b60405180910390f35b61017c61048d565b6040516101899190611ba6565b60405180910390f35b6101ac60048036038101906101a79190611416565b610497565b6040516101b991906119e9565b60405180910390f35b6101ca61055d565b6040516101d79190611bc1565b60405180910390f35b6101fa60048036038101906101f591906114a1565b610566565b60405161020791906119e9565b60405180910390f35b61022a600480360381019061022591906113b1565b61059d565b6040516102379190611ba6565b60405180910390f35b6102486105e5565b005b61025261066d565b60405161025f91906119ce565b60405180910390f35b610270610697565b60405161027d9190611a04565b60405180910390f35b61028e610729565b60405161029b9190611ba6565b60405180910390f35b6102be60048036038101906102b991906114a1565b610733565b6040516102cb91906119e9565b60405180910390f35b6102ee60048036038101906102e991906114a1565b6107aa565b6040516102fb91906119e9565b60405180910390f35b61031e60048036038101906103199190611465565b610864565b005b61033a600480360381019061033591906113da565b610989565b6040516103479190611ba6565b60405180910390f35b61036a600480360381019061036591906113b1565b610a10565b60405161037791906119e9565b60405180910390f35b610388610a66565b60405161039591906119ce565b60405180910390f35b6103a6610a90565b6040516103b39190611ba6565b60405180910390f35b6103d660048036038101906103d191906113b1565b610a9a565b005b6060600380546103e790611d95565b80601f016020809104026020016040519081016040528092919081815260200182805461041390611d95565b80156104605780601f1061043557610100808354040283529160200191610460565b820191906000526020600020905b81548152906001019060200180831161044357829003601f168201915b5050505050905090565b600080610475610b97565b9050610482818585610b9f565b600191505092915050565b6000600254905090565b6000806104a2610b97565b90506104af858285610d6a565b60006064600754856104c19190611c7f565b6104cb9190611c4e565b9050600081856104db9190611cd9565b905060006064600854846104ef9190611c7f565b6104f99190611c4e565b9050600081846105099190611cd9565b9050610516898985610df6565b6105208983611077565b61054d89600960009054906101000a900473ffffffffffffffffffffffffffffffffffffffff1683610df6565b6001955050505050509392505050565b60006012905090565b600080610571610b97565b90506105928185856105838589610989565b61058d9190611bf8565b610b9f565b600191505092915050565b60008060008373ffffffffffffffffffffffffffffffffffffffff1673ffffffffffffffffffffffffffffffffffffffff168152602001908152602001600020549050919050565b6105ed610b97565b73ffffffffffffffffffffffffffffffffffffffff1661060b61066d565b73ffffffffffffffffffffffffffffffffffffffff1614610661576040517f08c379a000000000000000000000000000000000000000000000000000000000815260040161065890611ae6565b60405180910390fd5b61066b600061124e565b565b6000600560009054906101000a900473ffffffffffffffffffffffffffffffffffffffff16905090565b6060600480546106a690611d95565b80601f01602080910402602001604051908101604052809291908181526020018280546106d290611d95565b801561071f5780601f106106f45761010080835404028352916020019161071f565b820191906000526020600020905b81548152906001019060200180831161070257829003601f168201915b5050505050905090565b6000600754905090565b60008061073e610b97565b9050600061074c8286610989565b905083811015610791576040517f08c379a000000000000000000000000000000000000000000000000000000000815260040161078890611b86565b60405180910390fd5b61079e8286868403610b9f565b60019250505092915050565b6000806064600754846107bd9190611c7f565b6107c79190611c4e565b9050600081846107d79190611cd9565b905060006064600854846107eb9190611c7f565b6107f59190611c4e565b9050600081846108059190611cd9565b90506000610811610b97565b905061081e818986610df6565b6108288184611077565b61085581600960009054906101000a900473ffffffffffffffffffffffffffffffffffffffff1684610df6565b60019550505050505092915050565b61086c610b97565b73ffffffffffffffffffffffffffffffffffffffff1661088a61066d565b73ffffffffffffffffffffffffffffffffffffffff16146108e0576040517f08c379a00000000000000000000000000000000000000000000000000000000081526004016108d790611ae6565b60405180910390fd5b80600660008473ffffffffffffffffffffffffffffffffffffffff1673ffffffffffffffffffffffffffffffffffffffff16815260200190815260200160002060006101000a81548160ff0219169083151502179055508173ffffffffffffffffffffffffffffffffffffffff167f6a12b3df6cba4203bd7fd06b816789f87de8c594299aed5717ae070fac781bac8260405161097d91906119e9565b60405180910390a25050565b6000600160008473ffffffffffffffffffffffffffffffffffffffff1673ffffffffffffffffffffffffffffffffffffffff16815260200190815260200160002060008373ffffffffffffffffffffffffffffffffffffffff1673ffffffffffffffffffffffffffffffffffffffff16815260200190815260200160002054905092915050565b6000600660008373ffffffffffffffffffffffffffffffffffffffff1673ffffffffffffffffffffffffffffffffffffffff16815260200190815260200160002060009054906101000a900460ff169050919050565b6000600960009054906101000a900473ffffffffffffffffffffffffffffffffffffffff16905090565b6000600854905090565b610aa2610b97565b73ffffffffffffffffffffffffffffffffffffffff16610ac061066d565b73ffffffffffffffffffffffffffffffffffffffff1614610b16576040517f08c379a0000000000000000000000000000000000000000000000000000000008152600401610b0d90611ae6565b60405180910390fd5b600073ffffffffffffffffffffffffffffffffffffffff168173ffffffffffffffffffffffffffffffffffffffff161415610b86576040517f08c379a0000000000000000000000000000000000000000000000000000000008152600401610b7d90611a66565b60405180910390fd5b610b8f8161124e565b50565b505050565b600033905090565b600073ffffffffffffffffffffffffffffffffffffffff168373ffffffffffffffffffffffffffffffffffffffff161415610c0f576040517f08c379a0000000000000000000000000000000000000000000000000000000008152600401610c0690611b46565b60405180910390fd5b600073ffffffffffffffffffffffffffffffffffffffff168273ffffffffffffffffffffffffffffffffffffffff161415610c7f576040517f08c379a0000000000000000000000000000000000000000000000000000000008152600401610c7690611a86565b60405180910390fd5b80600160008573ffffffffffffffffffffffffffffffffffffffff1673ffffffffffffffffffffffffffffffffffffffff16815260200190815260200160002060008473ffffffffffffffffffffffffffffffffffffffff1673ffffffffffffffffffffffffffffffffffffffff168152602001908152602001600020819055508173ffffffffffffffffffffffffffffffffffffffff168373ffffffffffffffffffffffffffffffffffffffff167f8c5be1e5ebec7d5bd14f71427d1e84f3dd0314c0f7b2291e5b200ac8c7c3b92583604051610d5d9190611ba6565b60405180910390a3505050565b6000610d768484610989565b90507fffffffffffffffffffffffffffffffffffffffffffffffffffffffffffffffff8114610df05781811015610de2576040517f08c379a0000000000000000000000000000000000000000000000000000000008152600401610dd990611aa6565b60405180910390fd5b610def8484848403610b9f565b5b50505050565b600073ffffffffffffffffffffffffffffffffffffffff168373ffffffffffffffffffffffffffffffffffffffff161415610e66576040517f08c379a0000000000000000000000000000000000000000000000000000000008152600401610e5d90611b26565b60405180910390fd5b600073ffffffffffffffffffffffffffffffffffffffff168273ffffffffffffffffffffffffffffffffffffffff161415610ed6576040517f08c379a0000000000000000000000000000000000000000000000000000000008152600401610ecd90611a26565b60405180910390fd5b610ee1838383611314565b60008060008573ffffffffffffffffffffffffffffffffffffffff1673ffffffffffffffffffffffffffffffffffffffff16815260200190815260200160002054905081811015610f67576040517f08c379a0000000000000000000000000000000000000000000000000000000008152600401610f5e90611ac6565b60405180910390fd5b8181036000808673ffffffffffffffffffffffffffffffffffffffff1673ffffffffffffffffffffffffffffffffffffffff16815260200190815260200160002081905550816000808573ffffffffffffffffffffffffffffffffffffffff1673ffffffffffffffffffffffffffffffffffffffff1681526020019081526020016000206000828254610ffa9190611bf8565b925050819055508273ffffffffffffffffffffffffffffffffffffffff168473ffffffffffffffffffffffffffffffffffffffff167fddf252ad1be2c89b69c2b068fc378daa952ba7f163c4a11628f55a4df523b3ef8460405161105e9190611ba6565b60405180910390a361107184848461136d565b50505050565b600073ffffffffffffffffffffffffffffffffffffffff168273ffffffffffffffffffffffffffffffffffffffff1614156110e7576040517f08c379a00000000000000000000000000000000000000000000000000000000081526004016110de90611b06565b60405180910390fd5b6110f382600083611314565b60008060008473ffffffffffffffffffffffffffffffffffffffff1673ffffffffffffffffffffffffffffffffffffffff16815260200190815260200160002054905081811015611179576040517f08c379a000000000000000000000000000000000000000000000000000000000815260040161117090611a46565b60405180910390fd5b8181036000808573ffffffffffffffffffffffffffffffffffffffff1673ffffffffffffffffffffffffffffffffffffffff1681526020019081526020016000208190555081600260008282546111d09190611cd9565b92505081905550600073ffffffffffffffffffffffffffffffffffffffff168373ffffffffffffffffffffffffffffffffffffffff167fddf252ad1be2c89b69c2b068fc378daa952ba7f163c4a11628f55a4df523b3ef846040516112359190611ba6565b60405180910390a36112498360008461136d565b505050565b6000600560009054906101000a900473ffffffffffffffffffffffffffffffffffffffff16905081600560006101000a81548173ffffffffffffffffffffffffffffffffffffffff021916908373ffffffffffffffffffffffffffffffffffffffff1602179055508173ffffffffffffffffffffffffffffffffffffffff168173ffffffffffffffffffffffffffffffffffffffff167f8be0079c531659141344cd1fd0a4f28419497f9722a3daafe3b4186f6b6457e060405160405180910390a35050565b61131d82610a10565b1561135d576040517f08c379a000000000000000000000000000000000000000000000000000000000815260040161135490611b66565b60405180910390fd5b611368838383610b92565b505050565b505050565b60008135905061138181611e65565b92915050565b60008135905061139681611e7c565b92915050565b6000813590506113ab81611e93565b92915050565b6000602082840312156113c357600080fd5b60006113d184828501611372565b91505092915050565b600080604083850312156113ed57600080fd5b60006113fb85828601611372565b925050602061140c85828601611372565b9150509250929050565b60008060006060848603121561142b57600080fd5b600061143986828701611372565b935050602061144a86828701611372565b925050604061145b8682870161139c565b9150509250925092565b6000806040838503121561147857600080fd5b600061148685828601611372565b925050602061149785828601611387565b9150509250929050565b600080604083850312156114b457600080fd5b60006114c285828601611372565b92505060206114d38582860161139c565b9150509250929050565b6114e681611d0d565b82525050565b6114f581611d1f565b82525050565b600061150682611bdc565b6115108185611be7565b9350611520818560208601611d62565b61152981611e54565b840191505092915050565b6000611541602383611be7565b91507f45524332303a207472616e7366657220746f20746865207a65726f206164647260008301527f65737300000000000000000000000000000000000000000000000000000000006020830152604082019050919050565b60006115a7602283611be7565b91507f45524332303a206275726e20616d6f756e7420657863656564732062616c616e60008301527f63650000000000000000000000000000000000000000000000000000000000006020830152604082019050919050565b600061160d602683611be7565b91507f4f776e61626c653a206e6577206f776e657220697320746865207a65726f206160008301527f64647265737300000000000000000000000000000000000000000000000000006020830152604082019050919050565b6000611673602283611be7565b91507f45524332303a20617070726f766520746f20746865207a65726f20616464726560008301527f73730000000000000000000000000000000000000000000000000000000000006020830152604082019050919050565b60006116d9601d83611be7565b91507f45524332303a20696e73756666696369656e7420616c6c6f77616e63650000006000830152602082019050919050565b6000611719602683611be7565b91507f45524332303a207472616e7366657220616d6f756e742065786365656473206260008301527f616c616e636500000000000000000000000000000000000000000000000000006020830152604082019050919050565b600061177f602083611be7565b91507f4f776e61626c653a2063616c6c6572206973206e6f7420746865206f776e65726000830152602082019050919050565b60006117bf602183611be7565b91507f45524332303a206275726e2066726f6d20746865207a65726f2061646472657360008301527f73000000000000000000000000000000000000000000000000000000000000006020830152604082019050919050565b6000611825602583611be7565b91507f45524332303a207472616e736665722066726f6d20746865207a65726f20616460008301527f64726573730000000000000000000000000000000000000000000000000000006020830152604082019050919050565b600061188b602483611be7565b91507f45524332303a20617070726f76652066726f6d20746865207a65726f2061646460008301527f72657373000000000000000000000000000000000000000000000000000000006020830152604082019050919050565b60006118f1603083611be7565b91507f546f6b656e207472616e7366657220726566757365642e20526563656976657260008301527f206973206f6e20626c61636b6c697374000000000000000000000000000000006020830152604082019050919050565b6000611957602583611be7565b91507f45524332303a2064656372656173656420616c6c6f77616e63652062656c6f7760008301527f207a65726f0000000000000000000000000000000000000000000000000000006020830152604082019050919050565b6119b981611d4b565b82525050565b6119c881611d55565b82525050565b60006020820190506119e360008301846114dd565b92915050565b60006020820190506119fe60008301846114ec565b92915050565b60006020820190508181036000830152611a1e81846114fb565b905092915050565b60006020820190508181036000830152611a3f81611534565b9050919050565b60006020820190508181036000830152611a5f8161159a565b9050919050565b60006020820190508181036000830152611a7f81611600565b9050919050565b60006020820190508181036000830152611a9f81611666565b9050919050565b60006020820190508181036000830152611abf816116cc565b9050919050565b60006020820190508181036000830152611adf8161170c565b9050919050565b60006020820190508181036000830152611aff81611772565b9050919050565b60006020820190508181036000830152611b1f816117b2565b9050919050565b60006020820190508181036000830152611b3f81611818565b9050919050565b60006020820190508181036000830152611b5f8161187e565b9050919050565b60006020820190508181036000830152611b7f816118e4565b9050919050565b60006020820190508181036000830152611b9f8161194a565b9050919050565b6000602082019050611bbb60008301846119b0565b92915050565b6000602082019050611bd660008301846119bf565b92915050565b600081519050919050565b600082825260208201905092915050565b6000611c0382611d4b565b9150611c0e83611d4b565b9250827fffffffffffffffffffffffffffffffffffffffffffffffffffffffffffffffff03821115611c4357611c42611dc7565b5b828201905092915050565b6000611c5982611d4b565b9150611c6483611d4b565b925082611c7457611c73611df6565b5b828204905092915050565b6000611c8a82611d4b565b9150611c9583611d4b565b9250817fffffffffffffffffffffffffffffffffffffffffffffffffffffffffffffffff0483118215151615611cce57611ccd611dc7565b5b828202905092915050565b6000611ce482611d4b565b9150611cef83611d4b565b925082821015611d0257611d01611dc7565b5b828203905092915050565b6000611d1882611d2b565b9050919050565b60008115159050919050565b600073ffffffffffffffffffffffffffffffffffffffff82169050919050565b6000819050919050565b600060ff82169050919050565b60005b83811015611d80578082015181840152602081019050611d65565b83811115611d8f576000848401525b50505050565b60006002820490506001821680611dad57607f821691505b60208210811415611dc157611dc0611e25565b5b50919050565b7f4e487b7100000000000000000000000000000000000000000000000000000000600052601160045260246000fd5b7f4e487b7100000000000000000000000000000000000000000000000000000000600052601260045260246000fd5b7f4e487b7100000000000000000000000000000000000000000000000000000000600052602260045260246000fd5b6000601f19601f8301169050919050565b611e6e81611d0d565b8114611e7957600080fd5b50565b611e8581611d1f565b8114611e9057600080fd5b50565b611e9c81611d4b565b8114611ea757600080fd5b5056fea2646970667358221220e7ad7cd811640a0b83ff465d2adc84b6cffd50dfcc5d057bb68e3e40fcebce4564736f6c63430008000033",
  "linkReferences": {},
  "deployedLinkReferences": {}
}